{
  "contractName": "Marketplace",
  "abi": [
    {
      "inputs": [],
      "stateMutability": "nonpayable",
      "type": "constructor"
    },
    {
      "anonymous": false,
      "inputs": [
        {
          "indexed": false,
          "internalType": "uint256",
          "name": "id",
          "type": "uint256"
        },
        {
          "indexed": false,
          "internalType": "string",
          "name": "name",
          "type": "string"
        },
        {
          "indexed": false,
          "internalType": "uint256",
          "name": "price",
          "type": "uint256"
        },
        {
          "indexed": false,
          "internalType": "address",
          "name": "owner",
          "type": "address"
        },
        {
          "indexed": false,
          "internalType": "string",
          "name": "img",
          "type": "string"
        },
        {
          "indexed": false,
          "internalType": "bool",
          "name": "purchased",
          "type": "bool"
        }
      ],
      "name": "ProductCreated",
      "type": "event"
    },
    {
      "anonymous": false,
      "inputs": [
        {
          "indexed": false,
          "internalType": "uint256",
          "name": "id",
          "type": "uint256"
        },
        {
          "indexed": false,
          "internalType": "string",
          "name": "name",
          "type": "string"
        },
        {
          "indexed": false,
          "internalType": "uint256",
          "name": "price",
          "type": "uint256"
        },
        {
          "indexed": false,
          "internalType": "address payable",
          "name": "owner",
          "type": "address"
        },
        {
          "indexed": false,
          "internalType": "bool",
          "name": "purchased",
          "type": "bool"
        }
      ],
      "name": "ProductPurchased",
      "type": "event"
    },
    {
      "inputs": [],
      "name": "name",
      "outputs": [
        {
          "internalType": "string",
          "name": "",
          "type": "string"
        }
      ],
      "stateMutability": "view",
      "type": "function",
      "constant": true
    },
    {
      "inputs": [],
      "name": "productCount",
      "outputs": [
        {
          "internalType": "uint256",
          "name": "",
          "type": "uint256"
        }
      ],
      "stateMutability": "view",
      "type": "function",
      "constant": true
    },
    {
      "inputs": [
        {
          "internalType": "uint256",
          "name": "",
          "type": "uint256"
        }
      ],
      "name": "products",
      "outputs": [
        {
          "internalType": "uint256",
          "name": "id",
          "type": "uint256"
        },
        {
          "internalType": "string",
          "name": "name",
          "type": "string"
        },
        {
          "internalType": "uint256",
          "name": "price",
          "type": "uint256"
        },
        {
          "internalType": "address",
          "name": "owner",
          "type": "address"
        },
        {
          "internalType": "string",
          "name": "img",
          "type": "string"
        },
        {
          "internalType": "bool",
          "name": "purchased",
          "type": "bool"
        }
      ],
      "stateMutability": "view",
      "type": "function",
      "constant": true
    },
    {
      "inputs": [
        {
          "internalType": "string",
          "name": "_name",
          "type": "string"
        },
        {
          "internalType": "uint256",
          "name": "_price",
          "type": "uint256"
        },
        {
          "internalType": "string",
          "name": "_img",
          "type": "string"
        }
      ],
      "name": "createProduct",
      "outputs": [],
      "stateMutability": "nonpayable",
      "type": "function"
    },
    {
      "inputs": [
        {
          "internalType": "uint256",
          "name": "_id",
          "type": "uint256"
        }
      ],
      "name": "purchaseProduct",
      "outputs": [],
      "stateMutability": "payable",
      "type": "function",
      "payable": true
    }
  ],
  "bytecode": "0x60806040523480156200001157600080fd5b506040518060400160405280601b81526020017f4441707020556e6976657273697479204d61726b6574706c6163650000000000815250600090816200005891906200068d565b506000600181905550620000df6040518060400160405280600b81526020017f4d6163626f6f6b2061697200000000000000000000000000000000000000000081525060056040518060400160405280600a81526020017f2e2f6d61632e6a706567000000000000000000000000000000000000000000008152506200025f60201b60201c565b6200015d6040518060400160405280600981526020017f4950686f6e652031320000000000000000000000000000000000000000000000815250600a6040518060400160405280600c81526020017f2e2f6970686f6e652e706e6700000000000000000000000000000000000000008152506200025f60201b60201c565b620001db6040518060400160405280600c81526020017f416972204a6f7264616e2031000000000000000000000000000000000000000081525060326040518060400160405280600c81526020017f2e2f73686f65732e6a70656700000000000000000000000000000000000000008152506200025f60201b60201c565b620002596040518060400160405280601481526020017f4e617574696c757320353731312f31412d30313800000000000000000000000081525060506040518060400160405280600b81526020017f2e2f77617463682e6a70670000000000000000000000000000000000000000008152506200025f60201b60201c565b620009b8565b670de0b6b3a764000082620002759190620007a3565b915060008351116200028657600080fd5b60008151116200029557600080fd5b60008211620002a357600080fd5b60016000815480929190620002b890620007ee565b91905055506040518060c0016040528060015481526020018481526020018381526020013373ffffffffffffffffffffffffffffffffffffffff168152602001828152602001600015158152506002600060015481526020019081526020016000206000820151816000015560208201518160010190816200033b91906200068d565b506040820151816002015560608201518160030160006101000a81548173ffffffffffffffffffffffffffffffffffffffff021916908373ffffffffffffffffffffffffffffffffffffffff1602179055506080820151816004019081620003a491906200068d565b5060a08201518160050160006101000a81548160ff0219169083151502179055509050507f4fedb4e20365afa9a3f34d27b71d6f0deb3fd33bc985938e6fcccdea5695091f60015484843385600060405162000406969594939291906200093d565b60405180910390a1505050565b600081519050919050565b7f4e487b7100000000000000000000000000000000000000000000000000000000600052604160045260246000fd5b7f4e487b7100000000000000000000000000000000000000000000000000000000600052602260045260246000fd5b600060028204905060018216806200049557607f821691505b602082108103620004ab57620004aa6200044d565b5b50919050565b60008190508160005260206000209050919050565b60006020601f8301049050919050565b600082821b905092915050565b600060088302620005157fffffffffffffffffffffffffffffffffffffffffffffffffffffffffffffffff82620004d6565b620005218683620004d6565b95508019841693508086168417925050509392505050565b6000819050919050565b6000819050919050565b60006200056e62000568620005628462000539565b62000543565b62000539565b9050919050565b6000819050919050565b6200058a836200054d565b620005a2620005998262000575565b848454620004e3565b825550505050565b600090565b620005b9620005aa565b620005c68184846200057f565b505050565b5b81811015620005ee57620005e2600082620005af565b600181019050620005cc565b5050565b601f8211156200063d576200060781620004b1565b6200061284620004c6565b8101602085101562000622578190505b6200063a6200063185620004c6565b830182620005cb565b50505b505050565b600082821c905092915050565b6000620006626000198460080262000642565b1980831691505092915050565b60006200067d83836200064f565b9150826002028217905092915050565b620006988262000413565b67ffffffffffffffff811115620006b457620006b36200041e565b5b620006c082546200047c565b620006cd828285620005f2565b600060209050601f831160018114620007055760008415620006f0578287015190505b620006fc85826200066f565b8655506200076c565b601f1984166200071586620004b1565b60005b828110156200073f5784890151825560018201915060208501945060208101905062000718565b868310156200075f57848901516200075b601f8916826200064f565b8355505b6001600288020188555050505b505050505050565b7f4e487b7100000000000000000000000000000000000000000000000000000000600052601160045260246000fd5b6000620007b08262000539565b9150620007bd8362000539565b9250828202620007cd8162000539565b91508282048414831517620007e757620007e662000774565b5b5092915050565b6000620007fb8262000539565b91507fffffffffffffffffffffffffffffffffffffffffffffffffffffffffffffffff820362000830576200082f62000774565b5b600182019050919050565b620008468162000539565b82525050565b600082825260208201905092915050565b60005b838110156200087d57808201518184015260208101905062000860565b60008484015250505050565b6000601f19601f8301169050919050565b6000620008a78262000413565b620008b381856200084c565b9350620008c58185602086016200085d565b620008d08162000889565b840191505092915050565b600073ffffffffffffffffffffffffffffffffffffffff82169050919050565b60006200090882620008db565b9050919050565b6200091a81620008fb565b82525050565b60008115159050919050565b620009378162000920565b82525050565b600060c0820190506200095460008301896200083b565b81810360208301526200096881886200089a565b90506200097960408301876200083b565b6200098860608301866200090f565b81810360808301526200099c81856200089a565b9050620009ad60a08301846200092c565b979650505050505050565b61131480620009c86000396000f3fe60806040526004361061004a5760003560e01c806306fdde031461004f57806338e76a031461007a5780637acc0b2014610096578063e0f6ef87146100d8578063ff38ec0f14610103575b600080fd5b34801561005b57600080fd5b5061006461012c565b60405161007191906108b8565b60405180910390f35b610094600480360381019061008f9190610924565b6101ba565b005b3480156100a257600080fd5b506100bd60048036038101906100b89190610924565b610502565b6040516100cf969594939291906109bc565b60405180910390f35b3480156100e457600080fd5b506100ed61067b565b6040516100fa9190610a2b565b60405180910390f35b34801561010f57600080fd5b5061012a60048036038101906101259190610b7b565b610681565b005b6000805461013990610c35565b80601f016020809104026020016040519081016040528092919081815260200182805461016590610c35565b80156101b25780601f10610187576101008083540402835291602001916101b2565b820191906000526020600020905b81548152906001019060200180831161019557829003601f168201915b505050505081565b600060026000838152602001908152602001600020905060008160030160009054906101000a900473ffffffffffffffffffffffffffffffffffffffff169050600082600001541180156102145750600154826000015411155b610253576040517f08c379a000000000000000000000000000000000000000000000000000000000815260040161024a90610cb2565b60405180910390fd5b816002015434101561029a576040517f08c379a000000000000000000000000000000000000000000000000000000000815260040161029190610d1e565b60405180910390fd5b8160050160009054906101000a900460ff16156102ec576040517f08c379a00000000000000000000000000000000000000000000000000000000081526004016102e390610d8a565b60405180910390fd5b3373ffffffffffffffffffffffffffffffffffffffff168173ffffffffffffffffffffffffffffffffffffffff160361032457600080fd5b338260030160006101000a81548173ffffffffffffffffffffffffffffffffffffffff021916908373ffffffffffffffffffffffffffffffffffffffff16021790555060018260050160006101000a81548160ff021916908315150217905550816002600085815260200190815260200160002060008201548160000155600182018160010190816103b69190610f6c565b50600282015481600201556003820160009054906101000a900473ffffffffffffffffffffffffffffffffffffffff168160030160006101000a81548173ffffffffffffffffffffffffffffffffffffffff021916908373ffffffffffffffffffffffffffffffffffffffff1602179055506004820181600401908161043c9190610f6c565b506005820160009054906101000a900460ff168160050160006101000a81548160ff0219169083151502179055509050508073ffffffffffffffffffffffffffffffffffffffff166108fc349081150290604051600060405180830381858888f193505050501580156104b3573d6000803e3d6000fd5b507f79558d0d7d4d900e2f15c4cc0a665f1acdbe415e44de900ecdd1e5bf12b56f4e6001548360010184600201543360016040516104f59594939291906110f9565b60405180910390a1505050565b600260205280600052604060002060009150905080600001549080600101805461052b90610c35565b80601f016020809104026020016040519081016040528092919081815260200182805461055790610c35565b80156105a45780601f10610579576101008083540402835291602001916105a4565b820191906000526020600020905b81548152906001019060200180831161058757829003601f168201915b5050505050908060020154908060030160009054906101000a900473ffffffffffffffffffffffffffffffffffffffff16908060040180546105e590610c35565b80601f016020809104026020016040519081016040528092919081815260200182805461061190610c35565b801561065e5780601f106106335761010080835404028352916020019161065e565b820191906000526020600020905b81548152906001019060200180831161064157829003601f168201915b5050505050908060050160009054906101000a900460ff16905086565b60015481565b670de0b6b3a7640000826106959190611182565b915060008351116106a557600080fd5b60008151116106b357600080fd5b600082116106c057600080fd5b600160008154809291906106d3906111c4565b91905055506040518060c0016040528060015481526020018481526020018381526020013373ffffffffffffffffffffffffffffffffffffffff16815260200182815260200160001515815250600260006001548152602001908152602001600020600082015181600001556020820151816001019081610754919061120c565b506040820151816002015560608201518160030160006101000a81548173ffffffffffffffffffffffffffffffffffffffff021916908373ffffffffffffffffffffffffffffffffffffffff16021790555060808201518160040190816107bb919061120c565b5060a08201518160050160006101000a81548160ff0219169083151502179055509050507f4fedb4e20365afa9a3f34d27b71d6f0deb3fd33bc985938e6fcccdea5695091f60015484843385600060405161081b969594939291906109bc565b60405180910390a1505050565b600081519050919050565b600082825260208201905092915050565b60005b83811015610862578082015181840152602081019050610847565b60008484015250505050565b6000601f19601f8301169050919050565b600061088a82610828565b6108948185610833565b93506108a4818560208601610844565b6108ad8161086e565b840191505092915050565b600060208201905081810360008301526108d2818461087f565b905092915050565b6000604051905090565b600080fd5b600080fd5b6000819050919050565b610901816108ee565b811461090c57600080fd5b50565b60008135905061091e816108f8565b92915050565b60006020828403121561093a576109396108e4565b5b60006109488482850161090f565b91505092915050565b61095a816108ee565b82525050565b600073ffffffffffffffffffffffffffffffffffffffff82169050919050565b600061098b82610960565b9050919050565b61099b81610980565b82525050565b60008115159050919050565b6109b6816109a1565b82525050565b600060c0820190506109d16000830189610951565b81810360208301526109e3818861087f565b90506109f26040830187610951565b6109ff6060830186610992565b8181036080830152610a11818561087f565b9050610a2060a08301846109ad565b979650505050505050565b6000602082019050610a406000830184610951565b92915050565b600080fd5b600080fd5b7f4e487b7100000000000000000000000000000000000000000000000000000000600052604160045260246000fd5b610a888261086e565b810181811067ffffffffffffffff82111715610aa757610aa6610a50565b5b80604052505050565b6000610aba6108da565b9050610ac68282610a7f565b919050565b600067ffffffffffffffff821115610ae657610ae5610a50565b5b610aef8261086e565b9050602081019050919050565b82818337600083830152505050565b6000610b1e610b1984610acb565b610ab0565b905082815260208101848484011115610b3a57610b39610a4b565b5b610b45848285610afc565b509392505050565b600082601f830112610b6257610b61610a46565b5b8135610b72848260208601610b0b565b91505092915050565b600080600060608486031215610b9457610b936108e4565b5b600084013567ffffffffffffffff811115610bb257610bb16108e9565b5b610bbe86828701610b4d565b9350506020610bcf8682870161090f565b925050604084013567ffffffffffffffff811115610bf057610bef6108e9565b5b610bfc86828701610b4d565b9150509250925092565b7f4e487b7100000000000000000000000000000000000000000000000000000000600052602260045260246000fd5b60006002820490506001821680610c4d57607f821691505b602082108103610c6057610c5f610c06565b5b50919050565b7f496e76616c69642070726f647563742049440000000000000000000000000000600082015250565b6000610c9c601283610833565b9150610ca782610c66565b602082019050919050565b60006020820190508181036000830152610ccb81610c8f565b9050919050565b7f496e73756666696369656e742066756e64730000000000000000000000000000600082015250565b6000610d08601283610833565b9150610d1382610cd2565b602082019050919050565b60006020820190508181036000830152610d3781610cfb565b9050919050565b7f50726f64756374206e6f7420617661696c61626c650000000000000000000000600082015250565b6000610d74601583610833565b9150610d7f82610d3e565b602082019050919050565b60006020820190508181036000830152610da381610d67565b9050919050565b600081549050610db981610c35565b9050919050565b60008190508160005260206000209050919050565b60006020601f8301049050919050565b600082821b905092915050565b600060088302610e227fffffffffffffffffffffffffffffffffffffffffffffffffffffffffffffffff82610de5565b610e2c8683610de5565b95508019841693508086168417925050509392505050565b6000819050919050565b6000610e69610e64610e5f846108ee565b610e44565b6108ee565b9050919050565b6000819050919050565b610e8383610e4e565b610e97610e8f82610e70565b848454610df2565b825550505050565b600090565b610eac610e9f565b610eb7818484610e7a565b505050565b5b81811015610edb57610ed0600082610ea4565b600181019050610ebd565b5050565b601f821115610f2057610ef181610dc0565b610efa84610dd5565b81016020851015610f09578190505b610f1d610f1585610dd5565b830182610ebc565b50505b505050565b600082821c905092915050565b6000610f4360001984600802610f25565b1980831691505092915050565b6000610f5c8383610f32565b9150826002028217905092915050565b818103610f7a575050611052565b610f8382610daa565b67ffffffffffffffff811115610f9c57610f9b610a50565b5b610fa68254610c35565b610fb1828285610edf565b6000601f831160018114610fe05760008415610fce578287015490505b610fd88582610f50565b86555061104b565b601f198416610fee87610dc0565b9650610ff986610dc0565b60005b8281101561102157848901548255600182019150600185019450602081019050610ffc565b8683101561103e578489015461103a601f891682610f32565b8355505b6001600288020188555050505b5050505050505b565b6000815461106181610c35565b61106b8186610833565b94506001821660008114611086576001811461109c576110cf565b60ff1983168652811515602002860193506110cf565b6110a585610dc0565b60005b838110156110c7578154818901526001820191506020810190506110a8565b808801955050505b50505092915050565b60006110e382610960565b9050919050565b6110f3816110d8565b82525050565b600060a08201905061110e6000830188610951565b81810360208301526111208187611054565b905061112f6040830186610951565b61113c60608301856110ea565b61114960808301846109ad565b9695505050505050565b7f4e487b7100000000000000000000000000000000000000000000000000000000600052601160045260246000fd5b600061118d826108ee565b9150611198836108ee565b92508282026111a6816108ee565b915082820484148315176111bd576111bc611153565b5b5092915050565b60006111cf826108ee565b91507fffffffffffffffffffffffffffffffffffffffffffffffffffffffffffffffff820361120157611200611153565b5b600182019050919050565b61121582610828565b67ffffffffffffffff81111561122e5761122d610a50565b5b6112388254610c35565b611243828285610edf565b600060209050601f8311600181146112765760008415611264578287015190505b61126e8582610f50565b8655506112d6565b601f19841661128486610dc0565b60005b828110156112ac57848901518255600182019150602085019450602081019050611287565b868310156112c957848901516112c5601f891682610f32565b8355505b6001600288020188555050505b50505050505056fea2646970667358221220d0a02a56a0ea77eeba223b4b2127609126513ee378bc6202f43befd9e066cb3864736f6c63430008130033",
  "immutableReferences": {},
  "source": "// SPDX-License-Identifier: MIT\npragma solidity ^0.8.0;\n\ncontract Marketplace {\n  string public name;\n  uint public productCount;\n  mapping(uint => Product) public products;\n\n  struct Product {\n    uint id;\n    string name;\n    uint price;\n    address owner;\n    string img;\n    bool purchased;\n  }\n\n  event ProductCreated (\n    uint id,\n    string name,\n    uint price,\n    address owner,\n    string img,\n    bool purchased\n  );\n\n  event ProductPurchased (\n    uint id,\n    string name,\n    uint price,\n    address payable owner,\n    bool purchased\n  );\n\n  constructor() {\n    name = \"DApp University Marketplace\";\n    productCount = 0;\n\n    createProduct(\"Macbook air\", 5, './mac.jpeg');\n    createProduct(\"IPhone 12\", 10, './iphone.png');\n    createProduct(\"Air Jordan 1\", 50, './shoes.jpeg');\n    createProduct(\"Nautilus 5711/1A-018\", 80, './watch.jpg');\n  }\n\n  // Ether\n  function createProduct(string memory _name, uint _price, string memory _img) public {\n    _price = _price * 1 ether;\n    require(bytes(_name).length > 0);\n    require(bytes(_img).length > 0);\n    require(_price > 0);\n    productCount ++;\n\n    // Create the product\n    products[productCount] = Product(productCount, _name, _price, msg.sender, _img, false);\n    emit ProductCreated(productCount, _name, _price, msg.sender, _img, false);\n  }\n\n  // wei\n  function purchaseProduct(uint _id) public payable {\n    Product storage _product = products[_id];\n    address payable _seller = payable(_product.owner);\n\n    require(_product.id > 0 && _product.id <= productCount, \"Invalid product ID\");\n    require(msg.value >= _product.price, \"Insufficient funds\");\n    require(!_product.purchased, \"Product not available\");\n    require(_seller != msg.sender);\n\n    _product.owner = msg.sender;\n    _product.purchased = true;\n    products[_id] = _product;\n    _seller.transfer(msg.value);\n\n    emit ProductPurchased(productCount, _product.name, _product.price, payable(msg.sender), true);\n  }\n}",
  "sourcePath": "/Users/no/Desktop///HW/Bonus/Marketplace/contracts/contracts/Marketplace.sol",
  "compiler": {
    "name": "solc",
    "version": "0.8.19+commit.7dd6d404.Emscripten.clang"
  },
  "schemaVersion": "3.4.14",
  "updatedAt": "2023-06-20T20:43:08.498Z",
  "networkType": "ethereum",
  "devdoc": {
    "kind": "dev",
    "methods": {},
    "version": 1
  },
  "userdoc": {
    "kind": "user",
    "methods": {},
    "version": 1
  }
}